:1000000061C0000086C0000084C0000082C0000003
:1000100080C000007EC000007CC000007AC00000EC
:1000200078C0000076C0000074C0000072C00000FC
:1000300070C000007DC700006CC000006AC00000F6
:100040000C94CF1066C000000C9453130C948513CD
:1000500060C000005EC000005CC000005AC000002C
:1000600058C0000056C00000000000080002010057
:100070000003040700000000000000000102040863
:100080001020408001020408102001020408102002
:10009000040404040404040402020202020203032E
:1000A00003030303000000002300260029000000D2
:1000B0000000250028002B0000000000240027007D
:1000C0002A00AA1311241FBECFEFD8E0DEBFCDBF98
:1000D00011E0A0E0B1E0ECE5F8E202C005900D927D
:1000E000AE39B107D9F723E0AEE9B1E001C01D9206
:1000F000A834B207E1F710E0C2E6D0E004C02197CF
:10010000FE010E942614C136D107C9F7DBD70C9433
:100110002C1476CFCF93DF93882349F0EB018150E5
:100120000E94541199838883DF91CF910895FB0138
:1001300011821082F9CF0F931F938B019C0183E0F2
:1001400036952795179507958A95D1F702561E4F34
:10015000462F477021E030E0F90102C0EE0FFF1F8B
:100160004A95E2F7AF01F80120812423CB010196E3
:10017000211102C090E080E01F910F9108950F932C
:100180001F938B019C0183E0369527951795079562
:100190008A95D1F7677081E090E001C0880F6A9579
:1001A000EAF7F801E256FE4F2081452B31F48095A5
:1001B000822380831F910F910895822BFACFCF92D3
:1001C000DF92EF92FF92CF93DF936B017C0160E0AF
:1001D0008EE0C816D104E104F10490F48EE08C0D99
:1001E0000E949811E6012196AE01C701B601C7DF52
:1001F000CE01DF91CF91FF90EF90DF90CF900895E7
:100200008C2DEECF882341F08150682F70E090E074
:1002100080E050E040E0B3CF0895611102C00C943B
:1002200098116130E1F362E0FACF662319F061E0E2
:100230000C94D41160E0FCCF0E94011221E00197E0
:1002400009F020E0822F089521E04091AD01509106
:10025000AE016091AF017091B001452B462B472B49
:1002600009F020E0FC01218321E04091B10150918F
:10027000B2016091B3017091B401452B462B472B1D
:1002800009F020E0FC01228308958F929F92AF92A3
:10029000BF92CF92DF92EF92FF920F931F93CF9373
:1002A000DF93CDB7DEB765970FB6F894DEBF0FBE0C
:1002B000CDBF4091AD015091AE016091AF01709101
:1002C000B00181E0411551056105710509F080E03B
:1002D0008093B501DB01CA010196A11DB11D8A30D1
:1002E0009105A105B10508F0FDC28093AD01909381
:1002F000AE01A093AF01B093B0018091B101909194
:10030000B201A091B301B091B4010196A11DB11D3C
:1003100082339105A105B10508F0EDC28093B101CA
:100320009093B201A093B301B093B401452B462B37
:10033000472B41F48091F70280932C038091F802BF
:1003400080932D03C0900A01D0900B01E0900C0126
:10035000F0900D01A70196016091920270919302B5
:1003600080919402909195020E94E50E882341F0BD
:10037000C0929202D0929302E0929402F09295027F
:100380006FE070E080E090E0D6DE90939102809381
:10039000900243E050E0BE016D5E7F4FBBDE6B8993
:1003A0007C8990E080E00E94150F2091220130911D
:1003B000230140912401509125010E946C1020914D
:1003C00026013091270140912801509129010E9476
:1003D0006C106D877E878F87988BC0900E01D090B0
:1003E0000F01E0901001F0901101A70196016091BA
:1003F00086027091870280918802909189020E9402
:10040000E50E882341F0C0928602D0928702E092E6
:100410008802F092890260E170E080E090E08BDE7B
:10042000909385028093840243E050E0BE016D5EAC
:100430007F4F70DE6B897C8990E080E00E94150F11
:1004400020912A0130912B0140912C0150912D01D6
:100450000E946C100E94520F69837A838B839C8365
:100460000E94ED0D882309F44FC219821A821B8263
:100470001C82C980DA80EB80FC8020E030E0A9019A
:10048000C701B6010E94E50E87FF55C2C701B6013C
:1004900090580E94E90E71956195710920914A0169
:1004A00030914B01629FC001639F900D729F900D30
:1004B00011249C8B8B8B2091000130910101281716
:1004C000390708F43DC280914E0190914F019A8BFB
:1004D000898BC0901201D0901301E0901401F0902C
:1004E0001501A701960160917A0270917B028091BB
:1004F0007C0290917D020E94E50E882341F0C0921B
:100500007A02D0927B02E0927C02F0927D0261E15D
:1005100070E080E090E00FDE9093790280937802A3
:1005200043E050E0BE016D5E7F4FF4DD6B897C8956
:1005300090E080E00E94150F20912E0130912F0154
:1005400040913001509131010E946C102091320194
:100550003091330140913401509135010E946C106B
:100560002091360130913701409138015091390185
:100570000E946E0E69837A838B839C83C0901601E0
:10058000D0901701E0901801F0901901A701960191
:1005900060916E0270916F02809170029091710271
:1005A0000E94E50E882341F0C0926E02D0926F0245
:1005B000E0927002F092710262E170E080E090E0FF
:1005C000BADD90936D0280936C0243E050E0BE016F
:1005D0006D5E7F4F9FDD6B897C8990E080E00E949B
:1005E000150F6D837E838F83988720913A01309118
:1005F0003B0140913C0150913D010E946C102091C3
:100600003E0130913F0140914001509141010E94D3
:100610006C1069877A878B879C878DEF92E09F9318
:100620008F9389EF92E09F938F93CE0145969F938E
:100630008F9388E293E09F938F9384E293E09F935C
:100640008F9380E293E09F938F938CE1882E83E0D9
:10065000982E98E1A92E93E0B92ECE0105966C0153
:100660002DE2E22E23E0F22E8E01075F1F4F9E0146
:100670002F5F3F4FAE014F5E5F4FBE01635F7F4F05
:100680008CE293E069D50FB6F894DEBF0FBECDBF04
:100690002D813E814F8158856091420170914301C7
:1006A00080914401909145010E94E50E87FF7DC134
:1006B00080915A0190915B019C8B8B8B8B899C89DB
:1006C0008F3F910529F020F08FEF90E09C8B8B8B72
:1006D0006B8982E0AADD2D813E814F815885609132
:1006E00046017091470180914801909149010E9413
:1006F000E50E18160CF45EC180915C0190915D01CD
:100700009C8B8B8B8B899C898F3F910529F020F0E6
:100710008FEF90E09C8B8B8B6B898CE086DD6091FA
:1007200018037091190380911A0390911B030E9482
:10073000080E6B017C01C982DA82EB82FC8220E028
:1007400030E040E853E40E94E50E6FEF87FF0EC0F3
:1007500020E030E0A901C701B6010E94681060E006
:1007600087FD04C0C701B6010E94E90E83E05DDD8C
:1007700060911C0370911D0380911E0390911F03D3
:100780000E94080E6B017C01C982DA82EB82FC8236
:1007900020E030E040E853E40E94E50E6FEF87FF71
:1007A0000EC020E030E0A901C701B6010E94681028
:1007B00060E087FD04C0C701B6010E94E90E84E035
:1007C00034DD609120037091210380912203909188
:1007D00023030E94080E6B017C01C982DA82EB823E
:1007E000FC8220E030E040E853E40E94E50E6FEF29
:1007F00087FF0EC020E030E0A901C701B6010E94CA
:10080000681060E087FD04C0C701B6010E94E90ED0
:1008100085E00BDD60912403709125038091260310
:10082000909127030E94080E6B017C01C982DA8235
:10083000EB82FC8220E030E040E853E40E94E50EC9
:100840006FEF87FF0EC020E030E0A901C701B601BD
:100850000E94681060E087FD04C0C701B6010E94D5
:10086000E90E86E0E2DC6091280370912903809113
:100870002A0390912B030E94080E6B017C01C98210
:10088000DA82EB82FC8220E030E040E853E40E9410
:10089000E50E6FEF87FF0EC020E030E0A901C70131
:1008A000B6010E94681060E087FD04C0C701B60170
:1008B0000E94E90E87E0B9DC6D8989E0B6DC6596B7
:1008C0000FB6F894DEBF0FBECDBFDF91CF911F9161
:1008D0000F91FF90EF90DF90CF90BF90AF909F90DF
:1008E0008F9008951092AD011092AE011092AF0159
:1008F0001092B00102CD1092B1011092B20110928B
:10090000B3011092B40112CD69817A818B819C81EF
:100910000E94C40D8111A9CD69817A818B819C814E
:1009200020E030E040E857E40E946C0F69837A834E
:100930008B839C839ECDC701B6010E94E90EAECD8C
:1009400020910201309103012817390728F0809186
:10095000500190915101BBCD2091040130910501CE
:100960002817390728F08091520190915301AFCD9B
:1009700020910601309107012817390728F080914E
:10098000540190915501A3CD2091080130910901A6
:100990002817390728F0809156019091570197CD7B
:1009A000809158019091590192CD80915C01909174
:1009B0005D0182CE80915A0190915B01A1CECF92D0
:1009C000DF92EF92FF92C0901A01D0901B01E0904D
:1009D0001C01F0901D01A70196016091AA0270917F
:1009E000AB028091AC029091AD020E94E50E88238B
:1009F00041F0C092AA02D092AB02E092AC02F09217
:100A0000AD0288E019DC8093F702C0901E01D090FF
:100A10001F01E0902001F0902101A7019601609153
:100A20009E0270919F028091A0029091A1020E946B
:100A3000E50E882341F0C0929E02D0929F02E09280
:100A4000A002F092A1028AE0F7DB8093F802FF9007
:100A5000EF90DF90CF90089561E08091F6028111D0
:100A600060E06093F6028DE0E0CBAF92BF92CF9250
:100A7000DF92EF92FF921F93CF93DF9384E090E099
:100A80000E94640D62E173E087EA91E00E94540DD8
:100A900080E0A82E81E0B82E90915E01E4E1F3E0C1
:100AA000908F80915F01818FC6E6D2E09093F7022C
:100AB0008093F802809160018093F6028DEF92E0BE
:100AC00039D31CA2F50182859385A485B5858CA7B1
:100AD0009DA7AEA7BFA7C12CD12C7601C394CDA2F0
:100AE000DEA2EFA2F8A66FE070E080E090E067DBA6
:100AF0009BA78AA711E019A7188EF501868597850F
:100B0000A089B18988A399A3AAA3BBA3C98EDA8EB1
:100B1000EB8EFC8E60E170E080E090E050DB9F8F18
:100B20008E8F1D8F1C86F50182899389A489B589D2
:100B30008C8B9D8BAE8BBF8BCD86DE86EF86F88A45
:100B400061E170E080E090E03ADB9B8B8A8B198B4F
:100B50001882F50186899789A08DB18D888799873C
:100B6000AA87BB87C982DA82EB82FC8262E170E0ED
:100B700080E090E024DB9F838E831D831092EE0241
:100B8000C092EF02D092F002E092F102F092F202F3
:100B900061E082E042DB1093F3021092AE02C09259
:100BA000AF02D092B002E092B102F092B20261E0E4
:100BB0008CE033DB1093B3021092E602C092E7029E
:100BC000D092E802E092E902F092EA0261E083E06A
:100BD00024DB1093EB021092D602C092D702D0927F
:100BE000D802E092D902F092DA0261E084E015DBEB
:100BF0001093DB021092CE02C092CF02D092D002AC
:100C0000E092D102F092D20261E085E006DB10931F
:100C1000D3021092C602C092C702D092C802E092DC
:100C2000C902F092CA0261E086E0F7DA1093CB02C3
:100C30001092BE02C092BF02D092C002E092C102E6
:100C4000F092C20261E087E0E8DA1093C3021092EA
:100C5000B602C092B702D092B802E092B902F09206
:100C6000BA0261E089E0D9DA1093BB021CAEF5014B
:100C7000828D938DA48DB58D8093AA029093AB0243
:100C8000A093AC02B093AD02C092A302D092A40292
:100C9000E092A502F092A60260E088E0BEDA10932E
:100CA000A70218AAF501868D978DA0A1B1A188AFE2
:100CB00099AFAAAFBBAFC9AADAAAEBAAFCAA60E0B7
:100CC0008AE0ABDA1DAB1092DE02C092DF02D09256
:100CD000E002E092E102F092E20261E08DE09DDA52
:100CE0001093E302DF91CF911F91FF90EF90DF907F
:100CF000CF90BF90AF90089580918A0281111DC05E
:100D000081E080938A0280918B0290918C02A09165
:100D10008D02B0918E020197A105B10571F4809109
:100D20008F02882351F06FE070E080E090E003DAFA
:100D3000909391028093900265DA80917E028111F6
:100D40001DC081E080937E0280917F02909180029D
:100D5000A0918102B09182020197A105B10571F4C1
:100D600080918302882351F060E170E080E090E0A0
:100D7000E2D9909385028093840244DA80917202D2
:100D800081111DC081E08093720280917302909165
:100D90007402A0917502B09176020197A105B10588
:100DA00071F480917702882351F061E170E080E076
:100DB00090E0C1D9909379028093780223DA8091F0
:100DC000660281111DC081E08093660280916702F6
:100DD00090916802A0916902B0916A020197A10501
:100DE000B10571F480916B02882351F062E170E0EB
:100DF00080E090E0A0D990936D0280936C0202DABB
:100E00008091EE02811103C081E08093EE02809117
:100E1000AE02811103C081E08093AE028091E602B0
:100E2000811103C081E08093E6028091D602811196
:100E300003C081E08093D6028091CE02811103C06D
:100E400081E08093CE028091C602811103C081E0CF
:100E50008093C6028091BE02811103C081E080931D
:100E6000BE028091B602811103C081E08093B60278
:100E70008091A202811103C081E08093A20280913F
:100E80009602811103C081E0809396028091DE0278
:100E9000811103C081E08093DE02089526E030E0F6
:100EA00040E855E260E070E090E080E000C0109221
:100EB000B7011092B60189309105F0F48D59984F21
:100EC000FC010C9426146C0776077D0780078307C6
:100ED000860789078C07920781E090E09093B7011D
:100EE0008093B60189EC91E00C94F31282E090E0DB
:100EF0009093B7018093B601089584E090E0F8CF15
:100F000088E090E0F5CF80E190E0F2CF80E290E0E1
:100F1000EFCF80E490E0ECCF80E890E09093B701D1
:100F20008093B6018091B6019091B7019160E0CFB6
:100F30001F920F920FB60F9211242F933F934F934E
:100F40005F936F937F938F939F93AF93BF93EF9331
:100F5000FF938FE89DEF909385008093840032D0BB
:100F6000FF91EF91BF91AF919F918F917F916F9181
:100F70005F914F913F912F910F900FBE0F901F9057
:100F800018958FE89DEF9093850080938400AFE6DD
:100F9000B0E08C918E7F8C93E0E8F0E080818C7FD4
:100FA0008083E1E8F0E08081877E808380818460B7
:100FB000808380818C7F80838C9181608C93089565
:100FC00081E00895CF93DF9300D01F92CDB7DEB7B5
:100FD0008091BB0191E0980F9093BB01882371F041
:100FE00021E030E03093BF012093BE018093BB012C
:100FF0000F900F900F90DF91CF910895CE01019641
:1010000023D9789442D9F8948091BB018150809380
:10101000BB018A81811134C08B8181113DC08091D7
:10102000BC018111E5CF8091B901882381F081E075
:101030008093BC017894C3DCF8948091B90181500D
:101040008093B9018091BC0181508093BC01809153
:10105000BD018111CDCF8091BA01882349F281E091
:101060008093BD017894F8DCF8948091BA018150A6
:101070008093BA018091BD0181508093BD01B8CFAA
:101080008091B90191E0980F9093B901882309F4F8
:10109000C3CF21E030E00BC08091BA0191E0980FFE
:1010A0009093BA0122E030E0882309F4B8CF41E000
:1010B00050E05093BF014093BE0128543E4FF901C8
:1010C0008083ADCFCF93DF9310922F0310922E0326
:1010D0000E941911E3DEC0918A01D0918B0119821F
:1010E0001882C3DCF8944DDF81E028813981232BFD
:1010F00009F080E080932E037894789480912E03F9
:10110000811107C0F9DDF89490E080E0DF91CF9184
:10111000089581E028813981232B09F480E08093B0
:101120002F0390912F0381E0911180E080932E0393
:1011300047DFE4CF40E050E060EA72E4FC01408722
:1011400051876287738740E050E060E272E4448731
:1011500055876687778708952F923F924F925F92C7
:101160006F927F928F929F92AF92BF92CF92DF92B7
:10117000EF92FF920F931F93CF93DF93CDB7DEB71C
:101180002C970FB6F894DEBF0FBECDBF98878F8324
:101190007A8369833A013A872987DC86CB86CBA498
:1011A000DCA4F8012081318142815381FB016081FF
:1011B00071818281938191D59F772DEC3CEC4CE439
:1011C0005DE386D718169CF001E010E020E030E0E7
:1011D00040E85FE3F6016481758186819781F5D5EA
:1011E000882311F010E000E0012B09F46EC080E0CC
:1011F00090E0A0E8BFE3F60184839583A683B783DC
:1012000021E030E03E832D83F7018081811113C0FE
:1012100001E010E020E030E040E85FE3F6016081AB
:10122000718182819381D1D5882311F010E000E093
:10123000012B09F402C480E090E0A0E8BFE3F601CE
:1012400080839183A283B383EE24E394F12C609195
:10125000610170916201809163019091640122D6D5
:101260001B012C01D4D4811133C0C201B10163D45C
:1012700081112EC020E030E040E857E4C201B10106
:101280002BD61B012C0120E030E0A9019ED587FF61
:1012900022C0C201B10190589CD521E0672B09F40E
:1012A00020E0EFA1F8A52083F601828981111CC0FE
:1012B00081E0828B84E0838BE9A5FAA510821182FC
:1012C0001282138210E000E0EAC01E821D829CCFD1
:1012D000212C312C2101C201B101DECF212C312C76
:1012E0002101C201B101D5C38389823009F462C1F1
:1012F000E0F4813089F1F30180819181019709F057
:101300007BC1F60164857585868597859058E9814E
:10131000FA812081318142815381DED6E9A5FAA587
:101320006083718382839383C4C1833009F481C154
:10133000843009F7EF81F8858081882319F281E0F4
:1013400090E0F30120813181232B11F490E080E0C3
:10135000892B09F051C1B6CFF301808191810497A7
:10136000B9F001E010E020E030E0A901E981FA8164
:101370006081718182819381ABD6181614F010E0E0
:1013800000E0012B29F0F601148A82E0838B4EC124
:10139000E981FA814080518062807380F6018489FE
:1013A000813051F1823009F457C02BEA3AEA4AEA17
:1013B0005EE3C301B2018CD618160CF456C020E0CF
:1013C00030E0A901E985FA8560817181828193818C
:1013D0007FD618160CF061C001E010E02BEA3AEA63
:1013E0004AEA5EE3C301B201F0D4181614F410E027
:1013F00000E0012B51F451C02BEA3AEA4AEA5EE3DD
:10140000C301B201E2D4181624F082E0F601848B05
:1014100044C020E030E040EC5FE3F6016085718578
:101420008285938559D669837A838B839C832BEA43
:101430003AEA4AEA5EE3C301B2014FD49B01AC0130
:1014400069817A818B819C8147D6E9A5FAA5608361
:1014500071838283938321C02BEA3AEA4AEA5EE3EE
:10146000C301B20135D6181614F481E0CFCF20E0C5
:1014700030E0A901E985FA856081718182819381DB
:10148000A4D418160CF47CC083E0F601848BE9A583
:10149000FAA5108211821282138204E010E0B701D3
:1014A000FF0C880B990BC3D42B013C0120918101C7
:1014B00030918201409183015091840109D6181620
:1014C0000CF019C18091690190916A01A0916B01A2
:1014D000B0916C01EB85FC8580839183A283B383FB
:1014E00020918501309186014091870150918801BA
:1014F000C301B201EDD518160CF01FC16091710146
:10150000709172018091730190917401CBD42B0181
:101510003C017DD381112DC1C301B2010CD38111D6
:1015200028C120E030E040E857E4C301B201D4D440
:101530002B013C0120E030E0A90147D487FF1CC10A
:10154000C301B201905845D400271127061B170B81
:10155000F6018089811115C181E0808B84E0818B47
:1015600080E090E0A0E8BFE3F50180839183A2834F
:10157000B383E9A1FAA110821182128213824CC2B4
:10158000F60180859185A285B3859C01AD015058F7
:1015900029833A834B835C8320E030E040E450E4CD
:1015A000C301B20199D59B01AC0160E070E080E815
:1015B0009FE343CFE981FA812080318042805380CC
:1015C0002BEA3AEA4AEA5EE3C201B10181D5F301AE
:1015D0002081318118166CF481E090E024303105CF
:1015E00011F090E080E0892B21F081E0F601838BFF
:1015F0000ECF2330310560F483E0F601838BE9A53B
:10160000FAA5108211821282138202E010E047CF05
:10161000A2019101F60160857185828593855CD573
:10162000E9A5FAA5608371838283938303E010E0C8
:1016300036CFE985FA85208031804280538020E0D2
:1016400030E040EA50ECC201B10142D51816A4F4D2
:10165000EF81F8858081882379F081E090E0F301C3
:10166000208131812330310510F490E080E0892B16
:1016700019F082E0F6018ACE20E030E040EA50E442
:10168000C201B101A2D387FF17C0EF81F885808125
:10169000882391F081E090E0F301208131812130B5
:1016A000310511F090E080E0892B31F085E0F60102
:1016B000838B01E010E0F3CEC201B1019F7720E0FF
:1016C00030E040EA50E481D387FF9FCFEF81F88577
:1016D0008081882309F499CF81E090E0F301208193
:1016E0003181232B11F090E080E0892B09F48DCF1C
:1016F00084E0F601E0CD2D813E81B901330F880BE6
:10170000990B95D32091790130917A0140917B0119
:1017100050917C01DDD418164CF480916D019091AC
:101720006E01A0916F01B0917001D4CEE9A5FAA528
:1017300080819181A281B381CDCE2D813E81B9017D
:10174000330F880B990B73D320917D0130917E016B
:1017500040917F0150918001BBD418160CF0F8CE57
:101760006091750170917601809177019091780177
:10177000CDCE412C512C3201C301B2012AD38B01B1
:10178000E7CE8189823009F49AC040F5813009F4AE
:101790004EC0F501108211821282138280E090E027
:1017A000A0E8BFE3E9A1FAA180839183A283B38378
:1017B000F4011082118212821382EBA1FCA110822B
:1017C000118212821382EDA1FEA110821182128277
:1017D00013820130110509F0D0C0B3C0833009F481
:1017E000EAC08430B1F680E090E0A0E8BFE3F50104
:1017F00080839183A283B383E9A1FAA1108211822D
:1018000012821382F4011082118212821382EBA1E0
:10181000FCA11082118212821382EDA1FEA110821E
:10182000118212821382012B09F0A7C08AC0F50130
:101830001082118212821382E9A1FAA11082118210
:1018400012821382F4011082118212821382EBA1A0
:10185000FCA1108211821282138280E090E0A0E845
:10186000BFE3EDA1FEA180839183A283B383043003
:10187000110509F466C082E0F601818BF501108242
:10188000118212821382E9A1FAA1108211821282BE
:101890001382F401108211821282138280E090E0A0
:1018A000A0E8BFE3EBA1FCA180839183A283B38373
:1018B000EDA1FEA1108211821282138242C0F501B5
:1018C0001082118212821382E9A1FAA11082118280
:1018D00012821382F401108211821282138280E03C
:1018E00090E0A0E8BFE3EBA1FCA180839183A283F9
:1018F000B383EDA1FEA11082118212821382043003
:101900001105C1F521E0F601218BF501108211824C
:1019100012821382E9A1FAA110821182128213822B
:10192000F4011082118212821382EBA1FCA11082B9
:10193000118212821382EDA1FEA180839183A28382
:10194000B3832C960FB6F894DEBF0FBECDBFDF91E8
:10195000CF911F910F91FF90EF90DF90CF90BF90AC
:10196000AF909F908F907F906F905F904F903F903F
:101970002F9008950330110520F783E0F601818B45
:10198000F5011082118212821382E9A1FAA110825C
:1019900011821282138280E090E0A0E8BFE3F4019C
:1019A00080839183A283B383EBA1FCA11082118277
:1019B000128213827DCFF50110821182128213826E
:1019C000E9A1FAA1108211821282138280E090E0D4
:1019D000A0E8BFE3F40180839183A283B383EBA1EA
:1019E000FCA11082118212821382EDA1FEA110824D
:1019F00011821282138201301105A1F425E0F60153
:101A0000218BF5011082118212821382E9A1FAA1C1
:101A100080839183A283B383F401108211821282A6
:101A20001382C2CF0330110508F025CF012B09F036
:101A300088CF24E0F601218B97CD2D813E81F12CBA
:101A4000E12C232B09F003CC6091650170916601B4
:101A5000809167019091680125D21B012C01D7D09C
:101A600081113CCCC201B10166D0811137CC20E09C
:101A700030E040E857E4C201B1012ED21B012C0135
:101A800020E030E0A901A1D187FF2BCCC201B10138
:101A900090589FD121E0672B09F420E0EFA1F8A531
:101AA0002083F12CE12C00CC0F931F93CF93DF9375
:101AB0008C01EB0184E090E007D019830883DF916B
:101AC000CF911F910F910895FED060933C037093C6
:101AD0003D0380933E0390933F03FAD0609330031D
:101AE000709331038093320390933303D8D0609383
:101AF00038037093390380933A0390933B03D4D017
:101B000060933403709335038093360390933703C7
:101B1000D0D060934003709341038093420390932D
:101B20004303CCD0609344037093450380934603F2
:101B3000909347030895CF92DF92EF92FF92CF9355
:101B40006B017C01AC019B016091380370913903FA
:101B500080913A0390913B0338D1C1E0882369F02A
:101B6000A701960160914003709141038091420367
:101B7000909143032AD18111C0E08C2FCF91FF9027
:101B8000EF90DF90CF900895CF92DF92EF92FF9287
:101B9000CF936B017C01AC019B0160913403709188
:101BA000350380913603909137030FD1C1E088232C
:101BB00069F0A701960160914403709145038091FB
:101BC00046039091470301D18111C0E08C2FCF9142
:101BD000FF90EF90DF90CF9008950F931F938B01AC
:101BE0009C010027112720783F7701151105204817
:101BF0003F4749F4AB01BC016F77772781E0452B64
:101C0000462B472B09F480E01F910F910895E5CFF3
:101C1000CF92DF92EF92FF926B017C019F7720E0E1
:101C200030E040E05BE4D1D087FF26C020E030E028
:101C300040E05FE3C701B6014BD287FD0CC020E056
:101C400030E040E05FE3C701B60148D0FF90EF907D
:101C5000DF90CF9027C120E030E040E05FEBC7018C
:101C6000B60136D218167CF420E030E0A901C70195
:101C7000B60132D26B017C01C701B601FF90EF9033
:101C8000DF90CF90089520E030E040E05FE3C701AF
:101C9000B60123D0FF90EF90DF90CF9083C060E03B
:101CA00070E080E89FE7089560E070E080E89FE7DB
:101CB000089560E070E080E89FEF089560E070E0D4
:101CC00080E89FEF089560E070E080EC9FEF08955A
:101CD00060E070E080EC9FEF08955058BB27AA2782
:101CE0000ED0A5C196D130F09BD120F031F49F3FAA
:101CF00011F41EF48BC10EF4E095E7FB58C1E92FF7
:101D0000A7D180F3BA17620773078407950718F005
:101D100071F49EF5D6C10EF4E0950B2EBA2FA02DCE
:101D20000B01B90190010C01CA01A0011124FF2788
:101D3000591B99F0593F50F4503E68F11A16F04083
:101D4000A22F232F342F4427585FF3CF4695379582
:101D50002795A795F0405395C9F77EF41F16BA0B47
:101D6000620B730B840BBAF09150A1F0FF0FBB1FF5
:101D7000661F771F881FC2F70EC0BA0F621F731F3E
:101D8000841F48F4879577956795B795F7959E3F9B
:101D900008F0B3CF9395880F08F09927EE0F979529
:101DA0008795089577D180F09F3740F491110EF414
:101DB00089C160E070E080E89FE3089526F01B167B
:101DC000611D711D811DF9C013C1CDD008F481E0E2
:101DD000089546D188F09F5790F0B92F9927B751B1
:101DE000A0F0D1F0660F771F881F991F1AF0BA95DF
:101DF000C9F712C0B13081F064D1B1E0089561C17A
:101E0000672F782F8827B85F39F0B93FCCF38695D4
:101E100077956795B395D9F73EF490958095709531
:101E200061957F4F8F4F9F4F0895E89409C097FBAE
:101E30003EF490958095709561957F4F8F4F9F4FA1
:101E40009923A9F0F92F96E9BB279395F6958795E5
:101E500077956795B795F111F8CFFAF4BB0F11F4A8
:101E600060FF1BC06F5F7F4F8F4F9F4F16C088234F
:101E700011F096E911C0772321F09EE8872F762F85
:101E800005C0662371F096E8862F70E060E02AF0C6
:101E90009A95660F771F881FDAF7880F96958795B2
:101EA00097F90895F7D080F09F3740F491110EF024
:101EB00009C160E070E080E89FEB089526F41B16EE
:101EC000611D711D811D79C093C0A3D018F011F060
:101ED000A7D038F49BC0F6C0E92FBAD0B0F3552391
:101EE000C9F3E7FB6217730784079507A8F199F315
:101EF000E92FFF2788232AF03197660F771F881F65
:101F0000DAF7952F5527442332F091505040220F95
:101F1000331F441FD2F7BB27E91BF50B621B730B62
:101F2000840BB109C1F222F4620F731F841FB11D2B
:101F300031972AF0660F771F881FBB1FEFCF915094
:101F400050405AF041F0882332F0660F771F881F07
:101F500091505040C1F793954BC086957795679502
:101F60009F5FD9F7F8CF990F0008550FAA0BE0E84B
:101F7000FEEF16161706E807F907C0F0121613064B
:101F8000E407F50798F0621B730B840B950B39F48B
:101F90000A2661F0232B242B252B21F408950A26F1
:101FA00009F4A140A6958FEF811D811D089597F931
:101FB0009F6780E870E060E00895882371F47723DC
:101FC00021F09850872B762F07C0662311F49927AC
:101FD0000DC09051862B70E060E02AF09A95660F54
:101FE000771F881FDAF7880F9695879597F90895D8
:101FF0009F3F31F0915020F4879577956795B7957D
:10200000880F911D9695879597F908959FEF80EC1D
:10201000089500240A94161617061806090608954E
:1020200000240A9412161306140605060895092EB4
:102030000394000C11F4882352F0BB0F40F4BF2B23
:1020400011F460FF04C06F5F7F4F8F4F9F4F089563
:1020500057FD9058440F551F59F05F3F71F0479559
:10206000880F97FB991F61F09F3F79F0879508953E
:10207000121613061406551FF2CF4695F1DF08C05D
:10208000161617061806991FF1CF8695710561057A
:1020900008940895E5DFA0F0BEE7B91788F4BB27E0
:1020A0009F3860F41616B11D672F782F8827985F28
:1020B000F7CF869577956795B11D93959639C8F3B7
:1020C0000895E894BB2766277727CB0197F90895F1
:1020D0004ADF08F48FEF08950BD0A9CF9ADF28F0DC
:1020E0009FDF18F0952309F062CF90CF1124EACF3B
:1020F000AFDFA0F3959FD1F3950F50E0551F629F7E
:10210000F001729FBB27F00DB11D639FAA27F00D50
:10211000B11DAA1F649F6627B00DA11D661F829F77
:102120002227B00DA11D621F739FB00DA11D621F5C
:10213000839FA00D611D221F749F3327A00D611D79
:10214000231F849F600D211D822F762F6A2F11245B
:102150009F5750408AF0E1F088234AF0EE0FFF1FAE
:10216000BB1F661F771F881F91505040A9F79E3FE5
:10217000510570F01CCFA6CF5F3FECF3983EDCF327
:10218000869577956795B795F795E7959F5FC1F722
:10219000FE2B880F911D9695879597F908951F92AC
:1021A0000F920FB60F9211242F933F938F939F930B
:1021B000AF93BF938091C1019091C201A091C301DF
:1021C000B091C4013091C00123E0230F2D3758F5A1
:1021D0000196A11DB11D2093C0018093C101909370
:1021E000C201A093C301B093C4018091C501909135
:1021F000C601A091C701B091C8010196A11DB11DF2
:102200008093C5019093C601A093C701B093C80104
:10221000BF91AF919F918F913F912F910F900FBEE2
:102220000F901F90189526E8230F0296A11DB11D4F
:10223000D2CF789484B5826084BD84B5816084BD3A
:1022400085B5826085BD85B5816085BDEEE6F0E02F
:10225000808181608083E1E8F0E01082808182608B
:102260008083808181608083E0E8F0E0808181600C
:102270008083E1EBF0E0808184608083E0EBF0E03C
:10228000808181608083EAE7F0E0808184608083E0
:10229000808182608083808181608083808180688A
:1022A00080831092C10008958E3008F08E502091E6
:1022B000890190E4299F900111248770822B8093DB
:1022C0007C0080917A00806480937A0080917A000B
:1022D00086FDFCCF8091780090917900089583303D
:1022E00081F028F4813099F08230A9F00895873088
:1022F000A9F08830C9F08430B1F4809180008F7DDE
:1023000003C0809180008F7780938000089584B50A
:102310008F7784BD089584B58F7DFBCF8091B00009
:102320008F778093B00008958091B0008F7DF9CFB2
:10233000CF93DF9390E0FC01E458FF4F2491805746
:102340009F4FFC0184918823C9F090E0880F991F6A
:10235000FC01E854FF4FA591B491FC01E255FF4FF9
:10236000C591D49161110DC09FB7F8948C912095BF
:1023700082238C938881282328839FBFDF91CF916C
:102380000895623051F49FB7F8943C91822F809564
:1023900083238C93E8812E2BEFCF8FB7F894EC91A9
:1023A0002E2B2C938FBFEACF1F93CF93DF93282F31
:1023B00030E0F901E859FF4F8491F901E458FF4FEB
:1023C000D491F901E057FF4FC491CC23A1F0162F0F
:1023D000811185DFEC2FF0E0EE0FFF1FE255FF4F7C
:1023E000A591B4918FB7F894EC91111108C0D095D4
:1023F000DE23DC938FBFDF91CF911F910895DE2BF9
:10240000F8CFCF93DF93282F30E0F901E859FF4F41
:102410008491F901E458FF4FD491F901E057FF4F3F
:10242000C491CC2399F081115ADFEC2FF0E0EE0F2C
:10243000FF1FEC55FF4FA591B491EC91ED2381E086
:1024400090E009F480E0DF91CF91089580E090E082
:10245000FACFFC01918D228D892F90E0805C9F4FF7
:10246000821B91098F7399270895FC01918D828DAC
:10247000981731F0828DE80FF11D858D90E0089559
:102480008FEF9FEF0895FC01918D828D981761F079
:10249000A28DAE0FBF2FB11D5D968C91928D9F5F67
:1024A0009F73928F90E008958FEF9FEF0895FC0146
:1024B000538D448D252F30E0842F90E0821B930BA9
:1024C000541710F0CF96089501970895FC01A48D3C
:1024D000A80FB92FB11DA35ABF4F2C91848D90E046
:1024E00001968F739927848FA689B7892C93A08929
:1024F000B1898C91837080648C93938D848D9813B3
:1025000006C00288F389E02D80818F7D8083089545
:10251000CF93DF93EC01888D8823B1F0AA89BB8922
:10252000E889F9898C9185FD03C0808186FD0CC006
:102530000FB607FCF7CF8C9185FFF2CF808185FF26
:10254000EDCFCE01C3DFEACFDF91CF910895EF92B7
:10255000FF920F931F93CF93DF93EC0181E0888F5D
:102560009B8D8C8D98131AC0E889F989808185FF2D
:1025700015C09FB7F894EE89FF896083E889F989CF
:1025800080818370806480839FBF81E090E0DF91D1
:10259000CF911F910F91FF90EF900895F62E0B8D24
:1025A00010E00F5F1F4F0F731127E02E8C8D8E11DF
:1025B0000BC00FB607FCFACFE889F989808185FF47
:1025C000F5CFCE0183DFF2CFEB8DEC0FFD2FF11DA8
:1025D000E35AFF4FF0829FB7F8940B8FEA89FB898B
:1025E00080818062D0CFCF92DF92EF92FF921F93D3
:1025F000CF93DF93EC016A017B01122FE889F989FF
:1026000082E08083C11481EED806E104F10499F0E0
:1026100060E079E08DE390E0A7019601F5D02150CC
:102620003109410951095695479537952795211547
:1026300080E1380790F0E889F989108260E874E851
:102640008EE190E0A7019601DFD0215031094109C8
:1026500051095695479537952795EC85FD8530832B
:10266000EE85FF852083188EEC89FD891083EA8929
:10267000FB89808180618083EA89FB898081886011
:102680008083EA89FB89808180688083EA89FB896D
:1026900080818F7D8083DF91CF911F91FF90EF909C
:1026A000DF90CF9008951F920F920FB60F921124D2
:1026B0002F938F939F93EF93FF93E091D901F09124
:1026C000DA018081E091DF01F091E00182FD1BC021
:1026D00090818091E2018F5F8F732091E3018217D7
:1026E00041F0E091E201F0E0E753FE4F958F8093D7
:1026F000E201FF91EF919F918F912F910F900FBE6B
:102700000F901F9018958081F4CF1F920F920FB6F3
:102710000F9211242F933F934F935F936F937F9367
:102720008F939F93AF93BF93EF93FF9389EC91E0C7
:10273000CDDEFF91EF91BF91AF919F918F917F91EE
:102740006F915F914F913F912F910F900FBE0F901E
:102750001F901895E9ECF1E01382128288EE93E065
:10276000A0E0B0E084839583A683B78380E991E0FD
:102770009183808385EC90E09587848784EC90E05A
:102780009787868780EC90E0918B808B81EC90E03E
:10279000938B828B82EC90E0958B848B86EC90E01F
:1027A000978B868B118E128E138E148E0895AF9296
:1027B000BF92CF92DF92EF92FF920F931F93CF932E
:1027C000DF936C017B018B01040F151FEB015E0190
:1027D000AE18BF08C017D10759F06991D601ED9125
:1027E000FC910190F081E02DC6010995892B79F7C4
:1027F000C501DF91CF911F910F91FF90EF90DF9076
:10280000CF90BF90AF900895A1E21A2EAA1BBB1BD8
:10281000FD010DC0AA1FBB1FEE1FFF1FA217B307AC
:10282000E407F50720F0A21BB30BE40BF50B661FC2
:10283000771F881F991F1A9469F760957095809586
:1028400090959B01AC01BD01CF010895EE0FFF1FD4
:0C2850000590F491E02D0994F894FFCF5E
:10285C0001000200030004000500000080BF00001E
:10286C0080BF000080BF000080BFCDCCCC3DCDCC64
:10287C00CC3D0A28A03BCDCC4C3E0A28A03B0A28D4
:10288C00A03B00007042000070C20A28A03BCDCCD7
:10289C004C3E0000000000000000010000000000A1
:1028AC00010002000300040005000100000000000C
:1028BC00000000803F00000000000000000000004D
:1028CC00000000004000000040000000000000007C
:1028DC0000000000000000000001A7010000000043
:0E28EC00A712D7135712881229124312351261
:00000001FF
